{
  "_format": "hh-sol-artifact-1",
  "contractName": "MyEpicGame",
  "sourceName": "contracts/MyEpicGame.sol",
  "abi": [
    {
      "inputs": [
        {
          "internalType": "string[]",
          "name": "characterNames",
          "type": "string[]"
        },
        {
          "internalType": "string[]",
          "name": "characterImageURIs",
          "type": "string[]"
        },
        {
          "internalType": "uint256[]",
          "name": "characterHPs",
          "type": "uint256[]"
        },
        {
          "internalType": "uint256[]",
          "name": "characterAttackDamage",
          "type": "uint256[]"
        },
        {
          "internalType": "string",
          "name": "bossName",
          "type": "string"
        },
        {
          "internalType": "string",
          "name": "bossImageUri",
          "type": "string"
        },
        {
          "internalType": "uint256",
          "name": "bossHp",
          "type": "uint256"
        },
        {
          "internalType": "uint256",
          "name": "bossAttackDamage",
          "type": "uint256"
        }
      ],
      "stateMutability": "nonpayable",
      "type": "constructor"
    },
    {
      "anonymous": false,
      "inputs": [
        {
          "indexed": true,
          "internalType": "address",
          "name": "owner",
          "type": "address"
        },
        {
          "indexed": true,
          "internalType": "address",
          "name": "approved",
          "type": "address"
        },
        {
          "indexed": true,
          "internalType": "uint256",
          "name": "tokenId",
          "type": "uint256"
        }
      ],
      "name": "Approval",
      "type": "event"
    },
    {
      "anonymous": false,
      "inputs": [
        {
          "indexed": true,
          "internalType": "address",
          "name": "owner",
          "type": "address"
        },
        {
          "indexed": true,
          "internalType": "address",
          "name": "operator",
          "type": "address"
        },
        {
          "indexed": false,
          "internalType": "bool",
          "name": "approved",
          "type": "bool"
        }
      ],
      "name": "ApprovalForAll",
      "type": "event"
    },
    {
      "anonymous": false,
      "inputs": [
        {
          "indexed": false,
          "internalType": "uint256",
          "name": "newBossHp",
          "type": "uint256"
        },
        {
          "indexed": false,
          "internalType": "uint256",
          "name": "newPlayerHp",
          "type": "uint256"
        }
      ],
      "name": "AttackCompleted",
      "type": "event"
    },
    {
      "anonymous": false,
      "inputs": [
        {
          "indexed": false,
          "internalType": "address",
          "name": "sender",
          "type": "address"
        },
        {
          "indexed": false,
          "internalType": "uint256",
          "name": "tokenId",
          "type": "uint256"
        },
        {
          "indexed": false,
          "internalType": "uint256",
          "name": "characterIndex",
          "type": "uint256"
        }
      ],
      "name": "CharacterNFTMinted",
      "type": "event"
    },
    {
      "anonymous": false,
      "inputs": [
        {
          "indexed": true,
          "internalType": "address",
          "name": "from",
          "type": "address"
        },
        {
          "indexed": true,
          "internalType": "address",
          "name": "to",
          "type": "address"
        },
        {
          "indexed": true,
          "internalType": "uint256",
          "name": "tokenId",
          "type": "uint256"
        }
      ],
      "name": "Transfer",
      "type": "event"
    },
    {
      "inputs": [
        {
          "internalType": "address",
          "name": "to",
          "type": "address"
        },
        {
          "internalType": "uint256",
          "name": "tokenId",
          "type": "uint256"
        }
      ],
      "name": "approve",
      "outputs": [],
      "stateMutability": "nonpayable",
      "type": "function"
    },
    {
      "inputs": [],
      "name": "attackBoss",
      "outputs": [],
      "stateMutability": "nonpayable",
      "type": "function"
    },
    {
      "inputs": [
        {
          "internalType": "address",
          "name": "owner",
          "type": "address"
        }
      ],
      "name": "balanceOf",
      "outputs": [
        {
          "internalType": "uint256",
          "name": "",
          "type": "uint256"
        }
      ],
      "stateMutability": "view",
      "type": "function"
    },
    {
      "inputs": [],
      "name": "checkIfUserHasNFT",
      "outputs": [
        {
          "components": [
            {
              "internalType": "uint256",
              "name": "characterIndex",
              "type": "uint256"
            },
            {
              "internalType": "string",
              "name": "name",
              "type": "string"
            },
            {
              "internalType": "string",
              "name": "imageUri",
              "type": "string"
            },
            {
              "internalType": "uint256",
              "name": "hp",
              "type": "uint256"
            },
            {
              "internalType": "uint256",
              "name": "maxHp",
              "type": "uint256"
            },
            {
              "internalType": "uint256",
              "name": "attackDamage",
              "type": "uint256"
            }
          ],
          "internalType": "struct MyEpicGame.CharacterAttributes",
          "name": "",
          "type": "tuple"
        }
      ],
      "stateMutability": "view",
      "type": "function"
    },
    {
      "inputs": [],
      "name": "getAllDefaultCharacters",
      "outputs": [
        {
          "components": [
            {
              "internalType": "uint256",
              "name": "characterIndex",
              "type": "uint256"
            },
            {
              "internalType": "string",
              "name": "name",
              "type": "string"
            },
            {
              "internalType": "string",
              "name": "imageUri",
              "type": "string"
            },
            {
              "internalType": "uint256",
              "name": "hp",
              "type": "uint256"
            },
            {
              "internalType": "uint256",
              "name": "maxHp",
              "type": "uint256"
            },
            {
              "internalType": "uint256",
              "name": "attackDamage",
              "type": "uint256"
            }
          ],
          "internalType": "struct MyEpicGame.CharacterAttributes[]",
          "name": "",
          "type": "tuple[]"
        }
      ],
      "stateMutability": "view",
      "type": "function"
    },
    {
      "inputs": [
        {
          "internalType": "uint256",
          "name": "tokenId",
          "type": "uint256"
        }
      ],
      "name": "getApproved",
      "outputs": [
        {
          "internalType": "address",
          "name": "",
          "type": "address"
        }
      ],
      "stateMutability": "view",
      "type": "function"
    },
    {
      "inputs": [],
      "name": "getBigBoss",
      "outputs": [
        {
          "components": [
            {
              "internalType": "string",
              "name": "name",
              "type": "string"
            },
            {
              "internalType": "string",
              "name": "imageUri",
              "type": "string"
            },
            {
              "internalType": "uint256",
              "name": "hp",
              "type": "uint256"
            },
            {
              "internalType": "uint256",
              "name": "maxHp",
              "type": "uint256"
            },
            {
              "internalType": "uint256",
              "name": "attackDamage",
              "type": "uint256"
            }
          ],
          "internalType": "struct MyEpicGame.BigBoss",
          "name": "",
          "type": "tuple"
        }
      ],
      "stateMutability": "view",
      "type": "function"
    },
    {
      "inputs": [
        {
          "internalType": "address",
          "name": "owner",
          "type": "address"
        },
        {
          "internalType": "address",
          "name": "operator",
          "type": "address"
        }
      ],
      "name": "isApprovedForAll",
      "outputs": [
        {
          "internalType": "bool",
          "name": "",
          "type": "bool"
        }
      ],
      "stateMutability": "view",
      "type": "function"
    },
    {
      "inputs": [
        {
          "internalType": "uint256",
          "name": "characterIndex",
          "type": "uint256"
        }
      ],
      "name": "mintCharacterNFT",
      "outputs": [],
      "stateMutability": "nonpayable",
      "type": "function"
    },
    {
      "inputs": [],
      "name": "name",
      "outputs": [
        {
          "internalType": "string",
          "name": "",
          "type": "string"
        }
      ],
      "stateMutability": "view",
      "type": "function"
    },
    {
      "inputs": [
        {
          "internalType": "uint256",
          "name": "",
          "type": "uint256"
        }
      ],
      "name": "nftHolderAttributes",
      "outputs": [
        {
          "internalType": "uint256",
          "name": "characterIndex",
          "type": "uint256"
        },
        {
          "internalType": "string",
          "name": "name",
          "type": "string"
        },
        {
          "internalType": "string",
          "name": "imageUri",
          "type": "string"
        },
        {
          "internalType": "uint256",
          "name": "hp",
          "type": "uint256"
        },
        {
          "internalType": "uint256",
          "name": "maxHp",
          "type": "uint256"
        },
        {
          "internalType": "uint256",
          "name": "attackDamage",
          "type": "uint256"
        }
      ],
      "stateMutability": "view",
      "type": "function"
    },
    {
      "inputs": [
        {
          "internalType": "address",
          "name": "",
          "type": "address"
        }
      ],
      "name": "nftHolders",
      "outputs": [
        {
          "internalType": "uint256",
          "name": "",
          "type": "uint256"
        }
      ],
      "stateMutability": "view",
      "type": "function"
    },
    {
      "inputs": [
        {
          "internalType": "uint256",
          "name": "tokenId",
          "type": "uint256"
        }
      ],
      "name": "ownerOf",
      "outputs": [
        {
          "internalType": "address",
          "name": "",
          "type": "address"
        }
      ],
      "stateMutability": "view",
      "type": "function"
    },
    {
      "inputs": [
        {
          "internalType": "address",
          "name": "from",
          "type": "address"
        },
        {
          "internalType": "address",
          "name": "to",
          "type": "address"
        },
        {
          "internalType": "uint256",
          "name": "tokenId",
          "type": "uint256"
        }
      ],
      "name": "safeTransferFrom",
      "outputs": [],
      "stateMutability": "nonpayable",
      "type": "function"
    },
    {
      "inputs": [
        {
          "internalType": "address",
          "name": "from",
          "type": "address"
        },
        {
          "internalType": "address",
          "name": "to",
          "type": "address"
        },
        {
          "internalType": "uint256",
          "name": "tokenId",
          "type": "uint256"
        },
        {
          "internalType": "bytes",
          "name": "_data",
          "type": "bytes"
        }
      ],
      "name": "safeTransferFrom",
      "outputs": [],
      "stateMutability": "nonpayable",
      "type": "function"
    },
    {
      "inputs": [
        {
          "internalType": "address",
          "name": "operator",
          "type": "address"
        },
        {
          "internalType": "bool",
          "name": "approved",
          "type": "bool"
        }
      ],
      "name": "setApprovalForAll",
      "outputs": [],
      "stateMutability": "nonpayable",
      "type": "function"
    },
    {
      "inputs": [
        {
          "internalType": "bytes4",
          "name": "interfaceId",
          "type": "bytes4"
        }
      ],
      "name": "supportsInterface",
      "outputs": [
        {
          "internalType": "bool",
          "name": "",
          "type": "bool"
        }
      ],
      "stateMutability": "view",
      "type": "function"
    },
    {
      "inputs": [],
      "name": "symbol",
      "outputs": [
        {
          "internalType": "string",
          "name": "",
          "type": "string"
        }
      ],
      "stateMutability": "view",
      "type": "function"
    },
    {
      "inputs": [
        {
          "internalType": "uint256",
          "name": "_tokenId",
          "type": "uint256"
        }
      ],
      "name": "tokenURI",
      "outputs": [
        {
          "internalType": "string",
          "name": "",
          "type": "string"
        }
      ],
      "stateMutability": "view",
      "type": "function"
    },
    {
      "inputs": [
        {
          "internalType": "address",
          "name": "from",
          "type": "address"
        },
        {
          "internalType": "address",
          "name": "to",
          "type": "address"
        },
        {
          "internalType": "uint256",
          "name": "tokenId",
          "type": "uint256"
        }
      ],
      "name": "transferFrom",
      "outputs": [],
      "stateMutability": "nonpayable",
      "type": "function"
    }
  ],
  "bytecode": "0x60806040523480156200001157600080fd5b506040516200549938038062005499833981810160405281019062000037919062000923565b6040518060400160405280600b81526020017f457069632d526f626f74730000000000000000000000000000000000000000008152506040518060400160405280600381526020017f45505200000000000000000000000000000000000000000000000000000000008152508160009080519060200190620000bb9291906200068b565b508060019080519060200190620000d49291906200068b565b5050506040518060a0016040528085815260200184815260200183815260200183815260200182815250600a60008201518160000190805190602001906200011e9291906200068b565b5060208201518160010190805190602001906200013d9291906200068b565b5060408201518160020155606082015181600301556080820151816004015590505060005b88518110156200057a5760096040518060c001604052808381526020018b8481518110620001b9577f4e487b7100000000000000000000000000000000000000000000000000000000600052603260045260246000fd5b602002602001015181526020018a848151811062000200577f4e487b7100000000000000000000000000000000000000000000000000000000600052603260045260246000fd5b6020026020010151815260200189848151811062000247577f4e487b7100000000000000000000000000000000000000000000000000000000600052603260045260246000fd5b602002602001015181526020018984815181106200028e577f4e487b7100000000000000000000000000000000000000000000000000000000600052603260045260246000fd5b60200260200101518152602001888481518110620002d5577f4e487b7100000000000000000000000000000000000000000000000000000000600052603260045260246000fd5b60200260200101518152509080600181540180825580915050600190039060005260206000209060060201600090919091909150600082015181600001556020820151816001019080519060200190620003319291906200068b565b506040820151816002019080519060200190620003509291906200068b565b50606082015181600301556080820151816004015560a082015181600501555050600060098281548110620003ae577f4e487b7100000000000000000000000000000000000000000000000000000000600052603260045260246000fd5b90600052602060002090600602016040518060c001604052908160008201548152602001600182018054620003e39062000c49565b80601f0160208091040260200160405190810160405280929190818152602001828054620004119062000c49565b8015620004625780601f10620004365761010080835404028352916020019162000462565b820191906000526020600020905b8154815290600101906020018083116200044457829003601f168201915b505050505081526020016002820180546200047d9062000c49565b80601f0160208091040260200160405190810160405280929190818152602001828054620004ab9062000c49565b8015620004fc5780601f10620004d057610100808354040283529160200191620004fc565b820191906000526020600020905b815481529060010190602001808311620004de57829003601f168201915b5050505050815260200160038201548152602001600482015481526020016005820154815250509050620005636040518060600160405280602781526020016200547260279139826020015183606001518460400151620005a060201b620019691760201c565b508080620005719062000cb5565b91505062000162565b506200059260066200064c60201b62001a0b1760201c565b505050505050505062000dbb565b6200064684848484604051602401620005bd949392919062000ace565b6040516020818303038152906040527f8d142cdd000000000000000000000000000000000000000000000000000000007bffffffffffffffffffffffffffffffffffffffffffffffffffffffff19166020820180517bffffffffffffffffffffffffffffffffffffffffffffffffffffffff83818316178352505050506200066260201b60201c565b50505050565b6001816000016000828254019250508190555050565b60008151905060006a636f6e736f6c652e6c6f679050602083016000808483855afa5050505050565b828054620006999062000c49565b90600052602060002090601f016020900481019282620006bd576000855562000709565b82601f10620006d857805160ff191683800117855562000709565b8280016001018555821562000709579182015b8281111562000708578251825591602001919060010190620006eb565b5b5090506200071891906200071c565b5090565b5b80821115620007375760008160009055506001016200071d565b5090565b6000620007526200074c8462000b59565b62000b30565b905080838252602082019050828560208602820111156200077257600080fd5b60005b85811015620007c157815167ffffffffffffffff8111156200079657600080fd5b808601620007a58982620008df565b8552602085019450602084019350505060018101905062000775565b5050509392505050565b6000620007e2620007dc8462000b88565b62000b30565b905080838252602082019050828560208602820111156200080257600080fd5b60005b858110156200083657816200081b88826200090c565b84526020840193506020830192505060018101905062000805565b5050509392505050565b600062000857620008518462000bb7565b62000b30565b9050828152602081018484840111156200087057600080fd5b6200087d84828562000c13565b509392505050565b600082601f8301126200089757600080fd5b8151620008a98482602086016200073b565b91505092915050565b600082601f830112620008c457600080fd5b8151620008d6848260208601620007cb565b91505092915050565b600082601f830112620008f157600080fd5b81516200090384826020860162000840565b91505092915050565b6000815190506200091d8162000da1565b92915050565b600080600080600080600080610100898b0312156200094157600080fd5b600089015167ffffffffffffffff8111156200095c57600080fd5b6200096a8b828c0162000885565b985050602089015167ffffffffffffffff8111156200098857600080fd5b620009968b828c0162000885565b975050604089015167ffffffffffffffff811115620009b457600080fd5b620009c28b828c01620008b2565b965050606089015167ffffffffffffffff811115620009e057600080fd5b620009ee8b828c01620008b2565b955050608089015167ffffffffffffffff81111562000a0c57600080fd5b62000a1a8b828c01620008df565b94505060a089015167ffffffffffffffff81111562000a3857600080fd5b62000a468b828c01620008df565b93505060c062000a598b828c016200090c565b92505060e062000a6c8b828c016200090c565b9150509295985092959890939650565b600062000a898262000bed565b62000a95818562000bf8565b935062000aa781856020860162000c13565b62000ab28162000d90565b840191505092915050565b62000ac88162000c09565b82525050565b6000608082019050818103600083015262000aea818762000a7c565b9050818103602083015262000b00818662000a7c565b905062000b11604083018562000abd565b818103606083015262000b25818462000a7c565b905095945050505050565b600062000b3c62000b4f565b905062000b4a828262000c7f565b919050565b6000604051905090565b600067ffffffffffffffff82111562000b775762000b7662000d61565b5b602082029050602081019050919050565b600067ffffffffffffffff82111562000ba65762000ba562000d61565b5b602082029050602081019050919050565b600067ffffffffffffffff82111562000bd55762000bd462000d61565b5b62000be08262000d90565b9050602081019050919050565b600081519050919050565b600082825260208201905092915050565b6000819050919050565b60005b8381101562000c3357808201518184015260208101905062000c16565b8381111562000c43576000848401525b50505050565b6000600282049050600182168062000c6257607f821691505b6020821081141562000c795762000c7862000d32565b5b50919050565b62000c8a8262000d90565b810181811067ffffffffffffffff8211171562000cac5762000cab62000d61565b5b80604052505050565b600062000cc28262000c09565b91507fffffffffffffffffffffffffffffffffffffffffffffffffffffffffffffffff82141562000cf85762000cf762000d03565b5b600182019050919050565b7f4e487b7100000000000000000000000000000000000000000000000000000000600052601160045260246000fd5b7f4e487b7100000000000000000000000000000000000000000000000000000000600052602260045260246000fd5b7f4e487b7100000000000000000000000000000000000000000000000000000000600052604160045260246000fd5b6000601f19601f8301169050919050565b62000dac8162000c09565b811462000db857600080fd5b50565b6146a78062000dcb6000396000f3fe608060405234801561001057600080fd5b506004361061012c5760003560e01c806395d89b41116100ad578063c87b56dd11610071578063c87b56dd1461035a578063c8cf27f41461038a578063d4f24c5b146103a8578063e985e9c5146103b2578063f8b81ef7146103e25761012c565b806395d89b41146102b157806398da4c95146102cf578063a22cb46514610304578063b88d4fde14610320578063b953084e1461033c5761012c565b806323b872dd116100f457806323b872dd146101e957806342842e0e146102055780636352211e1461022157806370a08231146102515780637df124a1146102815761012c565b806301ffc9a7146101315780630665f9611461016157806306fdde031461017f578063081812fc1461019d578063095ea7b3146101cd575b600080fd5b61014b60048036038101906101469190612d11565b6103fe565b6040516101589190613639565b60405180910390f35b6101696104e0565b6040516101769190613933565b60405180910390f35b61018761063c565b6040516101949190613654565b60405180910390f35b6101b760048036038101906101b29190612d63565b6106ce565b6040516101c49190613579565b60405180910390f35b6101e760048036038101906101e29190612cd5565b610753565b005b61020360048036038101906101fe9190612bcf565b61086b565b005b61021f600480360381019061021a9190612bcf565b6108cb565b005b61023b60048036038101906102369190612d63565b6108eb565b6040516102489190613579565b60405180910390f35b61026b60048036038101906102669190612b6a565b61099d565b6040516102789190613977565b60405180910390f35b61029b60048036038101906102969190612b6a565b610a55565b6040516102a89190613977565b60405180910390f35b6102b9610a6d565b6040516102c69190613654565b60405180910390f35b6102e960048036038101906102e49190612d63565b610aff565b6040516102fb96959493929190613992565b60405180910390f35b61031e60048036038101906103199190612c99565b610c4b565b005b61033a60048036038101906103359190612c1e565b610c61565b005b610344610cc3565b6040516103519190613617565b60405180910390f35b610374600480360381019061036f9190612d63565b610e6e565b6040516103819190613654565b60405180910390f35b6103926110be565b60405161039f9190613955565b60405180910390f35b6103b0611296565b005b6103cc60048036038101906103c79190612b93565b6115b0565b6040516103d99190613639565b60405180910390f35b6103fc60048036038101906103f79190612d63565b611644565b005b60007f80ac58cd000000000000000000000000000000000000000000000000000000007bffffffffffffffffffffffffffffffffffffffffffffffffffffffff1916827bffffffffffffffffffffffffffffffffffffffffffffffffffffffff191614806104c957507f5b5e139f000000000000000000000000000000000000000000000000000000007bffffffffffffffffffffffffffffffffffffffffffffffffffffffff1916827bffffffffffffffffffffffffffffffffffffffffffffffffffffffff1916145b806104d957506104d882611a21565b5b9050919050565b6104e8612991565b600a6040518060a001604052908160008201805461050590613cd8565b80601f016020809104026020016040519081016040528092919081815260200182805461053190613cd8565b801561057e5780601f106105535761010080835404028352916020019161057e565b820191906000526020600020905b81548152906001019060200180831161056157829003601f168201915b5050505050815260200160018201805461059790613cd8565b80601f01602080910402602001604051908101604052809291908181526020018280546105c390613cd8565b80156106105780601f106105e557610100808354040283529160200191610610565b820191906000526020600020905b8154815290600101906020018083116105f357829003601f168201915b505050505081526020016002820154815260200160038201548152602001600482015481525050905090565b60606000805461064b90613cd8565b80601f016020809104026020016040519081016040528092919081815260200182805461067790613cd8565b80156106c45780601f10610699576101008083540402835291602001916106c4565b820191906000526020600020905b8154815290600101906020018083116106a757829003601f168201915b5050505050905090565b60006106d982611a8b565b610718576040517f08c379a000000000000000000000000000000000000000000000000000000000815260040161070f906138b3565b60405180910390fd5b6004600083815260200190815260200160002060009054906101000a900473ffffffffffffffffffffffffffffffffffffffff169050919050565b600061075e826108eb565b90508073ffffffffffffffffffffffffffffffffffffffff168373ffffffffffffffffffffffffffffffffffffffff1614156107cf576040517f08c379a00000000000000000000000000000000000000000000000000000000081526004016107c6906138f3565b60405180910390fd5b8073ffffffffffffffffffffffffffffffffffffffff166107ee611af7565b73ffffffffffffffffffffffffffffffffffffffff16148061081d575061081c81610817611af7565b6115b0565b5b61085c576040517f08c379a000000000000000000000000000000000000000000000000000000000815260040161085390613833565b60405180910390fd5b6108668383611aff565b505050565b61087c610876611af7565b82611bb8565b6108bb576040517f08c379a00000000000000000000000000000000000000000000000000000000081526004016108b290613913565b60405180910390fd5b6108c6838383611c96565b505050565b6108e683838360405180602001604052806000815250610c61565b505050565b6000806002600084815260200190815260200160002060009054906101000a900473ffffffffffffffffffffffffffffffffffffffff169050600073ffffffffffffffffffffffffffffffffffffffff168173ffffffffffffffffffffffffffffffffffffffff161415610994576040517f08c379a000000000000000000000000000000000000000000000000000000000815260040161098b90613873565b60405180910390fd5b80915050919050565b60008073ffffffffffffffffffffffffffffffffffffffff168273ffffffffffffffffffffffffffffffffffffffff161415610a0e576040517f08c379a0000000000000000000000000000000000000000000000000000000008152600401610a0590613853565b60405180910390fd5b600360008373ffffffffffffffffffffffffffffffffffffffff1673ffffffffffffffffffffffffffffffffffffffff168152602001908152602001600020549050919050565b60086020528060005260406000206000915090505481565b606060018054610a7c90613cd8565b80601f0160208091040260200160405190810160405280929190818152602001828054610aa890613cd8565b8015610af55780601f10610aca57610100808354040283529160200191610af5565b820191906000526020600020905b815481529060010190602001808311610ad857829003601f168201915b5050505050905090565b6007602052806000526040600020600091509050806000015490806001018054610b2890613cd8565b80601f0160208091040260200160405190810160405280929190818152602001828054610b5490613cd8565b8015610ba15780601f10610b7657610100808354040283529160200191610ba1565b820191906000526020600020905b815481529060010190602001808311610b8457829003601f168201915b505050505090806002018054610bb690613cd8565b80601f0160208091040260200160405190810160405280929190818152602001828054610be290613cd8565b8015610c2f5780601f10610c0457610100808354040283529160200191610c2f565b820191906000526020600020905b815481529060010190602001808311610c1257829003601f168201915b5050505050908060030154908060040154908060050154905086565b610c5d610c56611af7565b8383611ef2565b5050565b610c72610c6c611af7565b83611bb8565b610cb1576040517f08c379a0000000000000000000000000000000000000000000000000000000008152600401610ca890613913565b60405180910390fd5b610cbd8484848461205f565b50505050565b60606009805480602002602001604051908101604052809291908181526020016000905b82821015610e6557838290600052602060002090600602016040518060c001604052908160008201548152602001600182018054610d2490613cd8565b80601f0160208091040260200160405190810160405280929190818152602001828054610d5090613cd8565b8015610d9d5780601f10610d7257610100808354040283529160200191610d9d565b820191906000526020600020905b815481529060010190602001808311610d8057829003601f168201915b50505050508152602001600282018054610db690613cd8565b80601f0160208091040260200160405190810160405280929190818152602001828054610de290613cd8565b8015610e2f5780601f10610e0457610100808354040283529160200191610e2f565b820191906000526020600020905b815481529060010190602001808311610e1257829003601f168201915b50505050508152602001600382015481526020016004820154815260200160058201548152505081526020019060010190610ce7565b50505050905090565b6060600060098381548110610eac577f4e487b7100000000000000000000000000000000000000000000000000000000600052603260045260246000fd5b90600052602060002090600602016040518060c001604052908160008201548152602001600182018054610edf90613cd8565b80601f0160208091040260200160405190810160405280929190818152602001828054610f0b90613cd8565b8015610f585780601f10610f2d57610100808354040283529160200191610f58565b820191906000526020600020905b815481529060010190602001808311610f3b57829003601f168201915b50505050508152602001600282018054610f7190613cd8565b80601f0160208091040260200160405190810160405280929190818152602001828054610f9d90613cd8565b8015610fea5780601f10610fbf57610100808354040283529160200191610fea565b820191906000526020600020905b815481529060010190602001808311610fcd57829003601f168201915b5050505050815260200160038201548152602001600482015481526020016005820154815250509050600061102282606001516120bb565b9050600061103383608001516120bb565b905060006110448460a001516120bb565b9050600061108a8560200151611059896120bb565b87604001518787876040516020016110769695949392919061347b565b604051602081830303815290604052612268565b905060008160405160200161109f9190613557565b6040516020818303038152906040529050809650505050505050919050565b6110c66129c0565b6000600860003373ffffffffffffffffffffffffffffffffffffffff1673ffffffffffffffffffffffffffffffffffffffff168152602001908152602001600020549050600081111561128557600760008281526020019081526020016000206040518060c00160405290816000820154815260200160018201805461114b90613cd8565b80601f016020809104026020016040519081016040528092919081815260200182805461117790613cd8565b80156111c45780601f10611199576101008083540402835291602001916111c4565b820191906000526020600020905b8154815290600101906020018083116111a757829003601f168201915b505050505081526020016002820180546111dd90613cd8565b80601f016020809104026020016040519081016040528092919081815260200182805461120990613cd8565b80156112565780601f1061122b57610100808354040283529160200191611256565b820191906000526020600020905b81548152906001019060200180831161123957829003601f168201915b505050505081526020016003820154815260200160048201548152602001600582015481525050915050611293565b61128d6129c0565b80925050505b90565b6000600860003373ffffffffffffffffffffffffffffffffffffffff1673ffffffffffffffffffffffffffffffffffffffff16815260200190815260200160002054905060006007600083815260200190815260200160002090506000816003015411611338576040517f08c379a000000000000000000000000000000000000000000000000000000000815260040161132f90613773565b60405180910390fd5b6000600a6002015411611380576040517f08c379a000000000000000000000000000000000000000000000000000000000815260040161137790613753565b60405180910390fd5b8060050154600a6002015411156113b6578060050154600a60020160008282546113aa9190613bee565b925050819055506113c2565b6000600a600201819055505b600a60040154816003015411156113f857600a600401548160030160008282546113ec9190613bee565b92505081905550611403565b600081600301819055505b6114b76040518060600160405280603481526020016145926034913982600101805461142e90613cd8565b80601f016020809104026020016040519081016040528092919081815260200182805461145a90613cd8565b80156114a75780601f1061147c576101008083540402835291602001916114a7565b820191906000526020600020905b81548152906001019060200180831161148a57829003601f168201915b5050505050600a60020154612426565b61156a6040518060600160405280603e81526020016145c6603e91398260010180546114e290613cd8565b80601f016020809104026020016040519081016040528092919081815260200182805461150e90613cd8565b801561155b5780601f106115305761010080835404028352916020019161155b565b820191906000526020600020905b81548152906001019060200180831161153e57829003601f168201915b50505050508360030154612426565b7f24596b044f9390b6f54a6470706bb6795f0a3a4b6d148ca80241481a5f60938c600a6002015482600301546040516115a4929190613a01565b60405180910390a15050565b6000600560008473ffffffffffffffffffffffffffffffffffffffff1673ffffffffffffffffffffffffffffffffffffffff16815260200190815260200160002060008373ffffffffffffffffffffffffffffffffffffffff1673ffffffffffffffffffffffffffffffffffffffff16815260200190815260200160002060009054906101000a900460ff16905092915050565b600061165060066124c5565b905061165c33826124d3565b600060098381548110611698577f4e487b7100000000000000000000000000000000000000000000000000000000600052603260045260246000fd5b90600052602060002090600602016040518060c0016040529081600082015481526020016001820180546116cb90613cd8565b80601f01602080910402602001604051908101604052809291908181526020018280546116f790613cd8565b80156117445780601f1061171957610100808354040283529160200191611744565b820191906000526020600020905b81548152906001019060200180831161172757829003601f168201915b5050505050815260200160028201805461175d90613cd8565b80601f016020809104026020016040519081016040528092919081815260200182805461178990613cd8565b80156117d65780601f106117ab576101008083540402835291602001916117d6565b820191906000526020600020905b8154815290600101906020018083116117b957829003601f168201915b50505050508152602001600382015481526020016004820154815260200160058201548152505090506040518060c00160405280848152602001826020015181526020018260400151815260200182606001518152602001826080015181526020018260a00151815250600760008481526020019081526020016000206000820151816000015560208201518160010190805190602001906118799291906129f6565b5060408201518160020190805190602001906118969291906129f6565b50606082015181600301556080820151816004015560a082015181600501559050506118db6040518060600160405280602e8152602001614644602e913983856124f1565b81600860003373ffffffffffffffffffffffffffffffffffffffff1673ffffffffffffffffffffffffffffffffffffffff168152602001908152602001600020819055506119296006611a0b565b7f4bc303fd457a97b4691b9af582ce71868a3d258638c8d4f8c60988a0f0bfb8cd33838560405161195c939291906135e0565b60405180910390a1505050565b611a058484848460405160240161198394939291906136bb565b6040516020818303038152906040527f8d142cdd000000000000000000000000000000000000000000000000000000007bffffffffffffffffffffffffffffffffffffffffffffffffffffffff19166020820180517bffffffffffffffffffffffffffffffffffffffffffffffffffffffff8381831617835250505050612590565b50505050565b6001816000016000828254019250508190555050565b60007f01ffc9a7000000000000000000000000000000000000000000000000000000007bffffffffffffffffffffffffffffffffffffffffffffffffffffffff1916827bffffffffffffffffffffffffffffffffffffffffffffffffffffffff1916149050919050565b60008073ffffffffffffffffffffffffffffffffffffffff166002600084815260200190815260200160002060009054906101000a900473ffffffffffffffffffffffffffffffffffffffff1673ffffffffffffffffffffffffffffffffffffffff1614159050919050565b600033905090565b816004600083815260200190815260200160002060006101000a81548173ffffffffffffffffffffffffffffffffffffffff021916908373ffffffffffffffffffffffffffffffffffffffff160217905550808273ffffffffffffffffffffffffffffffffffffffff16611b72836108eb565b73ffffffffffffffffffffffffffffffffffffffff167f8c5be1e5ebec7d5bd14f71427d1e84f3dd0314c0f7b2291e5b200ac8c7c3b92560405160405180910390a45050565b6000611bc382611a8b565b611c02576040517f08c379a0000000000000000000000000000000000000000000000000000000008152600401611bf990613813565b60405180910390fd5b6000611c0d836108eb565b90508073ffffffffffffffffffffffffffffffffffffffff168473ffffffffffffffffffffffffffffffffffffffff161480611c7c57508373ffffffffffffffffffffffffffffffffffffffff16611c64846106ce565b73ffffffffffffffffffffffffffffffffffffffff16145b80611c8d5750611c8c81856115b0565b5b91505092915050565b8273ffffffffffffffffffffffffffffffffffffffff16611cb6826108eb565b73ffffffffffffffffffffffffffffffffffffffff1614611d0c576040517f08c379a0000000000000000000000000000000000000000000000000000000008152600401611d03906138d3565b60405180910390fd5b600073ffffffffffffffffffffffffffffffffffffffff168273ffffffffffffffffffffffffffffffffffffffff161415611d7c576040517f08c379a0000000000000000000000000000000000000000000000000000000008152600401611d73906137d3565b60405180910390fd5b611d878383836125b9565b611d92600082611aff565b6001600360008573ffffffffffffffffffffffffffffffffffffffff1673ffffffffffffffffffffffffffffffffffffffff1681526020019081526020016000206000828254611de29190613bee565b925050819055506001600360008473ffffffffffffffffffffffffffffffffffffffff1673ffffffffffffffffffffffffffffffffffffffff1681526020019081526020016000206000828254611e399190613b0d565b92505081905550816002600083815260200190815260200160002060006101000a81548173ffffffffffffffffffffffffffffffffffffffff021916908373ffffffffffffffffffffffffffffffffffffffff160217905550808273ffffffffffffffffffffffffffffffffffffffff168473ffffffffffffffffffffffffffffffffffffffff167fddf252ad1be2c89b69c2b068fc378daa952ba7f163c4a11628f55a4df523b3ef60405160405180910390a4505050565b8173ffffffffffffffffffffffffffffffffffffffff168373ffffffffffffffffffffffffffffffffffffffff161415611f61576040517f08c379a0000000000000000000000000000000000000000000000000000000008152600401611f58906137f3565b60405180910390fd5b80600560008573ffffffffffffffffffffffffffffffffffffffff1673ffffffffffffffffffffffffffffffffffffffff16815260200190815260200160002060008473ffffffffffffffffffffffffffffffffffffffff1673ffffffffffffffffffffffffffffffffffffffff16815260200190815260200160002060006101000a81548160ff0219169083151502179055508173ffffffffffffffffffffffffffffffffffffffff168373ffffffffffffffffffffffffffffffffffffffff167f17307eab39ab6107e8899845ad3d59bd9653f200f220920489ca2b5937696c31836040516120529190613639565b60405180910390a3505050565b61206a848484611c96565b612076848484846125be565b6120b5576040517f08c379a00000000000000000000000000000000000000000000000000000000081526004016120ac90613793565b60405180910390fd5b50505050565b60606000821415612103576040518060400160405280600181526020017f30000000000000000000000000000000000000000000000000000000000000008152509050612263565b600082905060005b6000821461213557808061211e90613d3b565b915050600a8261212e9190613b63565b915061210b565b60008167ffffffffffffffff811115612177577f4e487b7100000000000000000000000000000000000000000000000000000000600052604160045260246000fd5b6040519080825280601f01601f1916602001820160405280156121a95781602001600182028036833780820191505090505b5090505b6000851461225c576001826121c29190613bee565b9150600a856121d19190613d84565b60306121dd9190613b0d565b60f81b818381518110612219577f4e487b7100000000000000000000000000000000000000000000000000000000600052603260045260246000fd5b60200101907effffffffffffffffffffffffffffffffffffffffffffffffffffffffffffff1916908160001a905350600a856122559190613b63565b94506121ad565b8093505050505b919050565b606060008251905060008114156122915760405180602001604052806000815250915050612421565b600060036002836122a29190613b0d565b6122ac9190613b63565b60046122b89190613b94565b905060006020826122c99190613b0d565b67ffffffffffffffff811115612308577f4e487b7100000000000000000000000000000000000000000000000000000000600052604160045260246000fd5b6040519080825280601f01601f19166020018201604052801561233a5781602001600182028036833780820191505090505b5090506000604051806060016040528060408152602001614604604091399050600181016020830160005b868110156123de5760038101905062ffffff818a015116603f8160121c168401518060081b905060ff603f83600c1c1686015116810190508060081b905060ff603f8360061c1686015116810190508060081b905060ff603f831686015116810190508060e01b90508084526004840193505050612365565b5060038606600181146123f8576002811461240857612413565b613d3d60f01b6002830352612413565b603d60f81b60018303525b508484525050819450505050505b919050565b6124c083838360405160240161243e93929190613676565b6040516020818303038152906040527ff362ca59000000000000000000000000000000000000000000000000000000007bffffffffffffffffffffffffffffffffffffffffffffffffffffffff19166020820180517bffffffffffffffffffffffffffffffffffffffffffffffffffffffff8381831617835250505050612590565b505050565b600081600001549050919050565b6124ed828260405180602001604052806000815250612755565b5050565b61258b83838360405160240161250993929190613715565b6040516020818303038152906040527f969cdd03000000000000000000000000000000000000000000000000000000007bffffffffffffffffffffffffffffffffffffffffffffffffffffffff19166020820180517bffffffffffffffffffffffffffffffffffffffffffffffffffffffff8381831617835250505050612590565b505050565b60008151905060006a636f6e736f6c652e6c6f679050602083016000808483855afa5050505050565b505050565b60006125df8473ffffffffffffffffffffffffffffffffffffffff166127b0565b15612748578373ffffffffffffffffffffffffffffffffffffffff1663150b7a02612608611af7565b8786866040518563ffffffff1660e01b815260040161262a9493929190613594565b602060405180830381600087803b15801561264457600080fd5b505af192505050801561267557506040513d601f19601f820116820180604052508101906126729190612d3a565b60015b6126f8573d80600081146126a5576040519150601f19603f3d011682016040523d82523d6000602084013e6126aa565b606091505b506000815114156126f0576040517f08c379a00000000000000000000000000000000000000000000000000000000081526004016126e790613793565b60405180910390fd5b805181602001fd5b63150b7a0260e01b7bffffffffffffffffffffffffffffffffffffffffffffffffffffffff1916817bffffffffffffffffffffffffffffffffffffffffffffffffffffffff19161491505061274d565b600190505b949350505050565b61275f83836127c3565b61276c60008484846125be565b6127ab576040517f08c379a00000000000000000000000000000000000000000000000000000000081526004016127a290613793565b60405180910390fd5b505050565b600080823b905060008111915050919050565b600073ffffffffffffffffffffffffffffffffffffffff168273ffffffffffffffffffffffffffffffffffffffff161415612833576040517f08c379a000000000000000000000000000000000000000000000000000000000815260040161282a90613893565b60405180910390fd5b61283c81611a8b565b1561287c576040517f08c379a0000000000000000000000000000000000000000000000000000000008152600401612873906137b3565b60405180910390fd5b612888600083836125b9565b6001600360008473ffffffffffffffffffffffffffffffffffffffff1673ffffffffffffffffffffffffffffffffffffffff16815260200190815260200160002060008282546128d89190613b0d565b92505081905550816002600083815260200190815260200160002060006101000a81548173ffffffffffffffffffffffffffffffffffffffff021916908373ffffffffffffffffffffffffffffffffffffffff160217905550808273ffffffffffffffffffffffffffffffffffffffff16600073ffffffffffffffffffffffffffffffffffffffff167fddf252ad1be2c89b69c2b068fc378daa952ba7f163c4a11628f55a4df523b3ef60405160405180910390a45050565b6040518060a0016040528060608152602001606081526020016000815260200160008152602001600081525090565b6040518060c001604052806000815260200160608152602001606081526020016000815260200160008152602001600081525090565b828054612a0290613cd8565b90600052602060002090601f016020900481019282612a245760008555612a6b565b82601f10612a3d57805160ff1916838001178555612a6b565b82800160010185558215612a6b579182015b82811115612a6a578251825591602001919060010190612a4f565b5b509050612a789190612a7c565b5090565b5b80821115612a95576000816000905550600101612a7d565b5090565b6000612aac612aa784613a4f565b613a2a565b905082815260208101848484011115612ac457600080fd5b612acf848285613c96565b509392505050565b600081359050612ae681614535565b92915050565b600081359050612afb8161454c565b92915050565b600081359050612b1081614563565b92915050565b600081519050612b2581614563565b92915050565b600082601f830112612b3c57600080fd5b8135612b4c848260208601612a99565b91505092915050565b600081359050612b648161457a565b92915050565b600060208284031215612b7c57600080fd5b6000612b8a84828501612ad7565b91505092915050565b60008060408385031215612ba657600080fd5b6000612bb485828601612ad7565b9250506020612bc585828601612ad7565b9150509250929050565b600080600060608486031215612be457600080fd5b6000612bf286828701612ad7565b9350506020612c0386828701612ad7565b9250506040612c1486828701612b55565b9150509250925092565b60008060008060808587031215612c3457600080fd5b6000612c4287828801612ad7565b9450506020612c5387828801612ad7565b9350506040612c6487828801612b55565b925050606085013567ffffffffffffffff811115612c8157600080fd5b612c8d87828801612b2b565b91505092959194509250565b60008060408385031215612cac57600080fd5b6000612cba85828601612ad7565b9250506020612ccb85828601612aec565b9150509250929050565b60008060408385031215612ce857600080fd5b6000612cf685828601612ad7565b9250506020612d0785828601612b55565b9150509250929050565b600060208284031215612d2357600080fd5b6000612d3184828501612b01565b91505092915050565b600060208284031215612d4c57600080fd5b6000612d5a84828501612b16565b91505092915050565b600060208284031215612d7557600080fd5b6000612d8384828501612b55565b91505092915050565b6000612d98838361333d565b905092915050565b612da981613c22565b82525050565b6000612dba82613a90565b612dc48185613abe565b935083602082028501612dd685613a80565b8060005b85811015612e125784840389528151612df38582612d8c565b9450612dfe83613ab1565b925060208a01995050600181019050612dda565b50829750879550505050505092915050565b612e2d81613c34565b82525050565b6000612e3e82613a9b565b612e488185613acf565b9350612e58818560208601613ca5565b612e6181613e71565b840191505092915050565b6000612e7782613aa6565b612e818185613ae0565b9350612e91818560208601613ca5565b612e9a81613e71565b840191505092915050565b6000612eb082613aa6565b612eba8185613af1565b9350612eca818560208601613ca5565b612ed381613e71565b840191505092915050565b6000612ee982613aa6565b612ef38185613b02565b9350612f03818560208601613ca5565b80840191505092915050565b6000612f1c603a83613af1565b9150612f2782613e82565b604082019050919050565b6000612f3f600b83613b02565b9150612f4a82613ed1565b600b82019050919050565b6000612f62602a83613af1565b9150612f6d82613efa565b604082019050919050565b6000612f85603283613af1565b9150612f9082613f49565b604082019050919050565b6000612fa8602a83613b02565b9150612fb382613f98565b602a82019050919050565b6000612fcb601c83613af1565b9150612fd682613fe7565b602082019050919050565b6000612fee600e83613b02565b9150612ff982614010565b600e82019050919050565b6000613011602483613af1565b915061301c82614039565b604082019050919050565b6000613034601983613af1565b915061303f82614088565b602082019050919050565b6000613057602c83613af1565b9150613062826140b1565b604082019050919050565b600061307a602a83613b02565b915061308582614100565b602a82019050919050565b600061309d603883613af1565b91506130a88261414f565b604082019050919050565b60006130c0602a83613af1565b91506130cb8261419e565b604082019050919050565b60006130e3602983613af1565b91506130ee826141ed565b604082019050919050565b6000613106600483613b02565b91506131118261423c565b600482019050919050565b6000613129602083613af1565b915061313482614265565b602082019050919050565b600061314c602c83613af1565b91506131578261428e565b604082019050919050565b600061316f602983613af1565b915061317a826142dd565b604082019050919050565b6000613192600a83613b02565b915061319d8261432c565b600a82019050919050565b60006131b5600f83613b02565b91506131c082614355565b600f82019050919050565b60006131d8602183613af1565b91506131e38261437e565b604082019050919050565b60006131fb601d83613b02565b9150613206826143cd565b601d82019050919050565b600061321e603183613af1565b9150613229826143f6565b604082019050919050565b6000613241600383613b02565b915061324c82614445565b600382019050919050565b6000613264600383613b02565b915061326f8261446e565b600382019050919050565b6000613287600a83613b02565b915061329282614497565b600a82019050919050565b60006132aa605583613b02565b91506132b5826144c0565b605582019050919050565b600060a08301600083015184820360008601526132dd8282612e6c565b915050602083015184820360208601526132f78282612e6c565b915050604083015161330c604086018261345d565b50606083015161331f606086018261345d565b506080830151613332608086018261345d565b508091505092915050565b600060c083016000830151613355600086018261345d565b506020830151848203602086015261336d8282612e6c565b915050604083015184820360408601526133878282612e6c565b915050606083015161339c606086018261345d565b5060808301516133af608086018261345d565b5060a08301516133c260a086018261345d565b508091505092915050565b600060c0830160008301516133e5600086018261345d565b50602083015184820360208601526133fd8282612e6c565b915050604083015184820360408601526134178282612e6c565b915050606083015161342c606086018261345d565b50608083015161343f608086018261345d565b5060a083015161345260a086018261345d565b508091505092915050565b61346681613c8c565b82525050565b61347581613c8c565b82525050565b600061348682613185565b91506134928289612ede565b915061349d82612f32565b91506134a98288612ede565b91506134b482613234565b91506134bf8261329d565b91506134ca8261327a565b91506134d68287612ede565b91506134e182613234565b91506134ec826131a8565b91506134f782612f9b565b91506135038286612ede565b915061350e82612fe1565b915061351a8285612ede565b915061352582613257565b91506135308261306d565b915061353c8284612ede565b9150613547826130f9565b9150819050979650505050505050565b6000613562826131ee565b915061356e8284612ede565b915081905092915050565b600060208201905061358e6000830184612da0565b92915050565b60006080820190506135a96000830187612da0565b6135b66020830186612da0565b6135c3604083018561346c565b81810360608301526135d58184612e33565b905095945050505050565b60006060820190506135f56000830186612da0565b613602602083018561346c565b61360f604083018461346c565b949350505050565b600060208201905081810360008301526136318184612daf565b905092915050565b600060208201905061364e6000830184612e24565b92915050565b6000602082019050818103600083015261366e8184612ea5565b905092915050565b600060608201905081810360008301526136908186612ea5565b905081810360208301526136a48185612ea5565b90506136b3604083018461346c565b949350505050565b600060808201905081810360008301526136d58187612ea5565b905081810360208301526136e98186612ea5565b90506136f8604083018561346c565b818103606083015261370a8184612ea5565b905095945050505050565b6000606082019050818103600083015261372f8186612ea5565b905061373e602083018561346c565b61374b604083018461346c565b949350505050565b6000602082019050818103600083015261376c81612f0f565b9050919050565b6000602082019050818103600083015261378c81612f55565b9050919050565b600060208201905081810360008301526137ac81612f78565b9050919050565b600060208201905081810360008301526137cc81612fbe565b9050919050565b600060208201905081810360008301526137ec81613004565b9050919050565b6000602082019050818103600083015261380c81613027565b9050919050565b6000602082019050818103600083015261382c8161304a565b9050919050565b6000602082019050818103600083015261384c81613090565b9050919050565b6000602082019050818103600083015261386c816130b3565b9050919050565b6000602082019050818103600083015261388c816130d6565b9050919050565b600060208201905081810360008301526138ac8161311c565b9050919050565b600060208201905081810360008301526138cc8161313f565b9050919050565b600060208201905081810360008301526138ec81613162565b9050919050565b6000602082019050818103600083015261390c816131cb565b9050919050565b6000602082019050818103600083015261392c81613211565b9050919050565b6000602082019050818103600083015261394d81846132c0565b905092915050565b6000602082019050818103600083015261396f81846133cd565b905092915050565b600060208201905061398c600083018461346c565b92915050565b600060c0820190506139a7600083018961346c565b81810360208301526139b98188612ea5565b905081810360408301526139cd8187612ea5565b90506139dc606083018661346c565b6139e9608083018561346c565b6139f660a083018461346c565b979650505050505050565b6000604082019050613a16600083018561346c565b613a23602083018461346c565b9392505050565b6000613a34613a45565b9050613a408282613d0a565b919050565b6000604051905090565b600067ffffffffffffffff821115613a6a57613a69613e42565b5b613a7382613e71565b9050602081019050919050565b6000819050602082019050919050565b600081519050919050565b600081519050919050565b600081519050919050565b6000602082019050919050565b600082825260208201905092915050565b600082825260208201905092915050565b600082825260208201905092915050565b600082825260208201905092915050565b600081905092915050565b6000613b1882613c8c565b9150613b2383613c8c565b9250827fffffffffffffffffffffffffffffffffffffffffffffffffffffffffffffffff03821115613b5857613b57613db5565b5b828201905092915050565b6000613b6e82613c8c565b9150613b7983613c8c565b925082613b8957613b88613de4565b5b828204905092915050565b6000613b9f82613c8c565b9150613baa83613c8c565b9250817fffffffffffffffffffffffffffffffffffffffffffffffffffffffffffffffff0483118215151615613be357613be2613db5565b5b828202905092915050565b6000613bf982613c8c565b9150613c0483613c8c565b925082821015613c1757613c16613db5565b5b828203905092915050565b6000613c2d82613c6c565b9050919050565b60008115159050919050565b60007fffffffff0000000000000000000000000000000000000000000000000000000082169050919050565b600073ffffffffffffffffffffffffffffffffffffffff82169050919050565b6000819050919050565b82818337600083830152505050565b60005b83811015613cc3578082015181840152602081019050613ca8565b83811115613cd2576000848401525b50505050565b60006002820490506001821680613cf057607f821691505b60208210811415613d0457613d03613e13565b5b50919050565b613d1382613e71565b810181811067ffffffffffffffff82111715613d3257613d31613e42565b5b80604052505050565b6000613d4682613c8c565b91507fffffffffffffffffffffffffffffffffffffffffffffffffffffffffffffffff821415613d7957613d78613db5565b5b600182019050919050565b6000613d8f82613c8c565b9150613d9a83613c8c565b925082613daa57613da9613de4565b5b828206905092915050565b7f4e487b7100000000000000000000000000000000000000000000000000000000600052601160045260246000fd5b7f4e487b7100000000000000000000000000000000000000000000000000000000600052601260045260246000fd5b7f4e487b7100000000000000000000000000000000000000000000000000000000600052602260045260246000fd5b7f4e487b7100000000000000000000000000000000000000000000000000000000600052604160045260246000fd5b6000601f19601f8301169050919050565b7f4572726f723a20426f7373206d757374206861766520485020746f20706c617960008201527f6572207468652067616d652028616c7265616479206469656429000000000000602082015250565b7f202d2d204e465420233a20000000000000000000000000000000000000000000600082015250565b7f4572726f723a20596f75206d757374206861766520485020746f20617474616360008201527f6b2074686520626f737300000000000000000000000000000000000000000000602082015250565b7f4552433732313a207472616e7366657220746f206e6f6e20455243373231526560008201527f63656976657220696d706c656d656e7465720000000000000000000000000000602082015250565b7f7b202274726169745f74797065223a20224865616c746820506f696e7473222c60008201527f202276616c7565223a2000000000000000000000000000000000000000000000602082015250565b7f4552433732313a20746f6b656e20616c7265616479206d696e74656400000000600082015250565b7f2c20226d61785f76616c7565223a000000000000000000000000000000000000600082015250565b7f4552433732313a207472616e7366657220746f20746865207a65726f2061646460008201527f7265737300000000000000000000000000000000000000000000000000000000602082015250565b7f4552433732313a20617070726f766520746f2063616c6c657200000000000000600082015250565b7f4552433732313a206f70657261746f7220717565727920666f72206e6f6e657860008201527f697374656e7420746f6b656e0000000000000000000000000000000000000000602082015250565b7f7b202274726169745f74797065223a202241747461636b2044616d616765222c60008201527f202276616c7565223a2000000000000000000000000000000000000000000000602082015250565b7f4552433732313a20617070726f76652063616c6c6572206973206e6f74206f7760008201527f6e6572206e6f7220617070726f76656420666f7220616c6c0000000000000000602082015250565b7f4552433732313a2062616c616e636520717565727920666f7220746865207a6560008201527f726f206164647265737300000000000000000000000000000000000000000000602082015250565b7f4552433732313a206f776e657220717565727920666f72206e6f6e657869737460008201527f656e7420746f6b656e0000000000000000000000000000000000000000000000602082015250565b7f7d205d7d00000000000000000000000000000000000000000000000000000000600082015250565b7f4552433732313a206d696e7420746f20746865207a65726f2061646472657373600082015250565b7f4552433732313a20617070726f76656420717565727920666f72206e6f6e657860008201527f697374656e7420746f6b656e0000000000000000000000000000000000000000602082015250565b7f4552433732313a207472616e73666572206f6620746f6b656e2074686174206960008201527f73206e6f74206f776e0000000000000000000000000000000000000000000000602082015250565b7f7b226e616d65223a202200000000000000000000000000000000000000000000600082015250565b7f2261747472696275746573223a205b0000000000000000000000000000000000600082015250565b7f4552433732313a20617070726f76616c20746f2063757272656e74206f776e6560008201527f7200000000000000000000000000000000000000000000000000000000000000602082015250565b7f646174613a6170706c69636174696f6e2f6a736f6e3b6261736536342c000000600082015250565b7f4552433732313a207472616e736665722063616c6c6572206973206e6f74206f60008201527f776e6572206e6f7220617070726f766564000000000000000000000000000000602082015250565b7f222c200000000000000000000000000000000000000000000000000000000000600082015250565b7f7d2c200000000000000000000000000000000000000000000000000000000000600082015250565b7f22696d616765223a202200000000000000000000000000000000000000000000600082015250565b7f226465736372697074696f6e223a20225468697320697320616e204e4654207460008201527f686174206c6574732070656f706c6520706c617920696e207468652067616d6560208201527f204d657461766572736520536c6179657221222c200000000000000000000000604082015250565b61453e81613c22565b811461454957600080fd5b50565b61455581613c34565b811461456057600080fd5b50565b61456c81613c40565b811461457757600080fd5b50565b61458381613c8c565b811461458e57600080fd5b5056fe506c6179657220602573602061747461636b656420626f73732c2063757272656e7420485020666f7220426f7373206973202564426f73732061747461636b65642074686520706c6179657220602573602c2063757272656e74204850206f66207468697320706c617965722069732025644142434445464748494a4b4c4d4e4f505152535455565758595a6162636465666768696a6b6c6d6e6f707172737475767778797a303132333435363738392b2f4d696e746564204e465420772f20746f6b656e496420257320616e6420636861726163746572496e646578202573a2646970667358221220a3f6c93db827c8688fba7a577c49ec2cb336c33e32a88e569546ed59154baf7d64736f6c63430008040033446f6e6520696e697469616c697a696e6720257320772f2048503a2025732c20696d673a202573",
  "linkReferences": {},
  "deployedLinkReferences": {}
}